:100000000C9446000C94E9030C9465000C94650074
:100010000C9465000C9465000C9465000C946500CC
:100020000C9465000C9465000C9465000C946500BC
:100030000C9465000C9465000C9465000C946500AC
:100040000C9411040C9465000C9465000C946500EC
:100050000C9465000C9474040C9465000C94650079
:100060000C9465000C9465000C9465000C9465007C
:100070000C9465000C9465000C9465000C9465006C
:100080000C9465000C9465000C94650011241FBE4F
:10009000CFEFD0E1DEBFCDBF11E0A0E0B1E0E4ECF6
:1000A000FCE000E00BBF02C007900D92A034B10746
:1000B000D9F711E0A0E4B1E001C01D92AC39B1075D
:1000C000E1F70E9474030C9460060C9400008330E6
:1000D00091F0843028F4813051F08230B9F409C0B5
:1000E000853069F0853048F0863081F40CC08AEFA5
:1000F00007C088EC05C086E903C084E601C082E33E
:1001000080933A01089581E080934201089580919F
:10011000660190E0FC01EE0FFF1FE058FE4F2081CA
:10012000318140917301509174012423352361E0A2
:1001300070E02115310511F460E070E0FC01EE0F74
:10014000FF1FE258FE4F2081318140917101509193
:1001500072012423352341E050E02115310511F4CB
:1001600040E050E0462B572BFC01EE0FFF1FE458F8
:10017000FE4F2081318160916F01709170012623C3
:100180003723A1E02115310509F4A0E0FC01EE0FB1
:10019000FF1FE658FE4F2081318160916D01709103
:1001A0006E012623372381E02115310509F480E013
:1001B0008A2B90E0842B952B009711F08FEF0895F8
:1001C00080E008951F9310916601812F8F5F8093C7
:1001D00066010E9487008F3F09F046C010936601B8
:1001E000E12FF0E0DF01AA0FBB1FA658BE4F8D9193
:1001F0009C91119720916D0130916E01822B932B70
:100200008D939C93DF01AA0FBB1FA458BE4F8D9105
:100210009C91119720916F0130917001822B932B4B
:100220008D939C93DF01AA0FBB1FA258BE4F8D91E7
:100230009C9111972091710130917201822B932B27
:1002400011969C938E93EE0FFF1FE058FE4F808116
:1002500091812091730130917401822B932B9183B2
:10026000808381E0809339011F910895CF93DF93BC
:10027000E6E5F1E0CAE7D1E0A6E4B1E011928991A8
:10028000999174E0969587957A95E1F78D9381E041
:10029000E636F80799F78091660190E0FC01EA5A8A
:1002A000FE4F20916D0130916E0164E036952795E7
:1002B0006A95E1F74081422B4083FC01E95AFE4FE9
:1002C00020916F013091700154E0369527955A9531
:1002D000E1F74081422B4083FC01E85AFE4F209118
:1002E00071013091720144E0369527954A95E1F706
:1002F0004081422B4083FC01E75AFE4F209173015D
:100300003091740184E0369527958A95E1F78081D4
:10031000822B8083DF91CF9108950E94F40567E0DE
:1003200070E00E947F058093760110926801E82FAB
:10033000F0E083E0EE0FFF1F8A95E1F7E050FF4FFA
:10034000808191819C012070307FB6E036952795A1
:10035000BA95E1F730936E0120936D019C012070F6
:100360003F703695279536952795309370012093E9
:100370006F019C01207F3070220F331F220F331F2B
:1003800030937201209371018F709070E6E0880FB6
:10039000991FEA95E1F7909374018093730110928D
:1003A000660189E080936701109239010E948700FD
:1003B0008F3F19F481E0809342010895FF920F93DB
:1003C0001F93CF93DF93809168018F5F80936801C3
:1003D000843011F4109268010091760110E0F090E1
:1003E0006801000F111F000F111FF801EF0DF11D23
:1003F000EE0FFF1FE050FF4F208131818091670198
:10040000C82FD0E02397C901892F992782958F7033
:10041000AE010C2E02C0880F991F0A94E2F7909348
:100420006E0180936D01C90180709F70892F99279B
:10043000042E02C0880F991F0A94E2F7909370016E
:1004400080936F01C901807F9070B4E09695879585
:10045000BA95E1F7042E02C0880F991F0A94E2F7BB
:1004600090937201809371012F70307002C0220F3F
:10047000331F4A95E2F730937401209373010E9471
:1004800087008F3F09F047C0FA94F0926801F801A5
:10049000EF0DF11DEE0FFF1FE050FF4F2081318166
:1004A000C901892F992782958F70AE010C2E02C049
:1004B000880F991F0A94E2F790936E0180936D0163
:1004C000C90180709F70892F992702C0880F991FDA
:1004D000CA95E2F79093700180936F01C901807F04
:1004E000907054E0969587955A95E1F7042E02C0D6
:1004F000880F991F0A94E2F790937201809371011B
:100500002F70307002C0220F331F4A95E2F73093EC
:10051000740120937301DF91CF911F910F91FF9090
:100520000895BF92CF92DF92EF92FF920F931F93A5
:10053000CF93DF938B34910541F08D34910551F0C9
:100540008834910509F096C093C0B09067012B2DB7
:100550002F5F04C0B09067012B2D215020936701BD
:1005600080916801E0917601F0E0EE0FFF1FEE0F41
:10057000FF1FE80FF11DEE0FFF1FE050FF4F4081FE
:1005800051817A01EF2CFF24E2941FE0E12230E058
:1005900023503040C701022E02C0880F991F0A94D1
:1005A000E2F790936E0180936D018A0100701F70D5
:1005B000012F1127C801022E02C0880F991F0A942B
:1005C000E2F79093700180936F01EA01C07FD070D1
:1005D000A4E0D695C795AA95E1F7CE01022E02C0F8
:1005E000880F991F0A94E2F790937201809371012A
:1005F000FFE0CF2ED12CC422D522C60102C0880F25
:10060000991F2A95E2F790937401809373010E94D9
:1006100087008F3F79F5B09267018B2D90E00397AB
:10062000082E02C0EE0CFF1C0A94E2F7F0926E0155
:10063000E0926D01082E02C0000F111F0A94E2F72C
:100640001093700100936F01082E02C0CC0FDD1FC4
:100650000A94E2F7D0937201C093710102C0CC0CEE
:10066000DD1C8A95E2F7D0927401C092730102C03A
:100670000E94DE01DF91CF911F910F91FF90EF90CB
:10068000DF90CF90BF90089560914101AAE7B1E05B
:1006900080E090E02D913D914FE72E3F340789F4A3
:1006A0006F5FFC01EE0FFF1FE658FE4F9C0106C076
:1006B00052914291538342832150304012161306C7
:1006C000BCF301968031910529F7609341016530B3
:1006D00051F4809138018F5F8093380190E00E943F
:1006E0006700109241010895DF93CF93CDB7DEB735
:1006F0002A970FB6F894DEBF0FBECDBF8FEF87BB32
:1007000084BB18BA15BAEAE7F1E08EE090E781936E
:10071000919321E0E23AF207D1F78FEF9FEF9093A8
:100720009B0180939A0188E390E060E00E946E054F
:1007300069837A838B8385E390E060E00E946E0595
:100740006C837D838E8386E491E09A87898786E532
:1007500091E098878F83CE0101960E949C0483E0EC
:1007600089BF8AE080936A0080E487B98FEE86B9FA
:1007700081E087BF86E083BF82BF80E88FBF81EEC4
:1007800094E00197F1F700C0000084B195B10E9498
:10079000F90580913901813011F40E948D01809119
:1007A0004201813071F480E00E94C50480E090E055
:1007B0002A960FB6F894DEBF0FBECDBFCF91DF9162
:1007C00008950E94360183E00E94C5040E944403FC
:1007D000E0CF1F920F920FB60F920BB60F9211241B
:1007E0002F933F934F935F936F937F938F939F9339
:1007F000AF93BF93EF93FF930E94DE01FF91EF91C0
:10080000BF91AF919F918F917F916F915F914F9128
:100810003F912F910F900BBE0F900FBE0F901F9026
:1008200018951F920F920FB60F920BB60F921124CC
:100830002F933F934F935F936F937F938F939F93E8
:10084000AF93BF93EF93FF93809175018F5F809378
:100850007501809177018F5F8093770196E092BF59
:100860008E3129F58091690190916A0121E0853FDF
:10087000920718F08BE490E006C021E08C329207DA
:1008800020F48DE490E00E94910280916B019091A0
:100890006C0121E08C32920720F48EE180933A01C2
:1008A00004C0809138010E946700109277019091F6
:1008B000750180913A01981721F40E94E20010928C
:1008C0007501FF91EF91BF91AF919F918F917F91B2
:1008D0006F915F914F913F912F910F900BBE0F90B1
:1008E0000FBE0F901F9018951F920F920FB60F9288
:1008F00011248F939F9380914001882361F484B1E8
:1009000095B190936A018093690181E487B981E090
:10091000809340010AC084B195B190936C0180939B
:100920006B0180E487B9109240019F918F910F90E5
:100930000FBE0F901F901895909344018093430130
:100940000895E0914301F091440190E0A681B781C0
:10095000A80FB91F2C9130E0062E02C035952795BF
:100960000A94E2F721703070220F331F0084F18562
:10097000E02DE80FF91F808190E002C095958795E2
:100980006A95E2F78170822B08956F927F928F9221
:100990009F92AF92BF92CF92DF92EF92FF920F930E
:1009A0001F93DF93CF930F92CDB7DEB7982E00E061
:1009B00010E061E0E62EF12C51E0C52ED12C7BC079
:1009C0006090430170904401D3011196AD90BC90AA
:1009D0001297882D692F99830E94A1048921282FBD
:1009E00030E0F301008002C0220F331F0A94E2F7C7
:1009F000D5012C930180F281E02D8081D3012C91CF
:100A000030E02E5F3F4FA70102C0440F551F2A95CB
:100A1000E2F7842B80831196ED91FC9112978081EF
:100A20002C9130E02E5F3F4FD70102C0AA0FBB1FB1
:100A30002A95E2F79D0120952823208399819F5FC5
:100A4000983009F0BDCFE1EEF4E03197F1F700C046
:100A50000000E0914301F0914401A181B2812C9109
:100A6000808190E00396A60102C0440F551F8A952D
:100A7000E2F7242B2C93A181B2818C91208130E06C
:100A80002D5F3F4FA60102C0440F551F2A95E2F784
:100A90009A01209528232C93A481B581C801038055
:100AA00002C0880F991F0A94E2F78C930F5F1F4FC3
:100AB0000031110519F0802E90E082CF0F90CF9178
:100AC000DF911F910F91FF90EF90DF90CF90BF903B
:100AD000AF909F908F907F906F900895DF93CF930A
:100AE00000D00F92CDB7DEB78A839B83782F892FF2
:100AF00090E00F900F900F90CF91DF91089597FBAA
:100B0000092E07260AD077FD04D00CD006D000208D
:100B10001AF4709561957F4F0895F6F79095819539
:100B20009F4F0895AA1BBB1B51E107C0AA1FBB1F03
:100B3000A617B70710F0A61BB70B881F991F5A9569
:100B4000A9F780959095BC01CD010895AF92BF9211
:100B5000CF92DF92EF92FF920F931F93CF93DF9389
:100B6000EC01688179818A819B816115710581051C
:100B7000910521F464E279ED8BE597E02DE133EF07
:100B800041E050E00E94230679018A0127EA31E41E
:100B900040E050E00E9404065B016C01C801B7010F
:100BA0002CEE34EF4FEF5FEF0E9404066A0D7B1DC1
:100BB0008C1D9D1D97FF04C061507040804090487F
:100BC000688379838A839B837F77CB01DF91CF9181
:100BD0001F910F91FF90EF90DF90CF90BF90AF905B
:100BE00008950E94A60508958BE391E00E94A60552
:100BF0000895A0E0B0E080933B0190933C01A09366
:100C00003D01B0933E010895629FD001739FF001B2
:100C1000829FE00DF11D649FE00DF11D929FF00D8C
:100C2000839FF00D749FF00D659FF00D9927729FC3
:100C3000B00DE11DF91F639FB00DE11DF91FBD014E
:100C4000CF011124089597FB092E05260ED057FDDC
:100C500004D014D00AD0001C38F45095409530953B
:100C600021953F4F4F4F5F4F0895F6F79095809530
:100C7000709561957F4F8F4F9F4F0895A1E21A2E77
:100C8000AA1BBB1BFD010DC0AA1FBB1FEE1FFF1F30
:100C9000A217B307E407F50720F0A21BB30BE40B80
:100CA000F50B661F771F881F991F1A9469F76095C7
:100CB0007095809590959B01AC01BD01CF01089581
:040CC000F894FFCFD6
:100CC400006600660066006600F0444400F0444498
:100CD400006C408C006C408C00C6804C00C6804C7C
:100CE40000E4808C004E404C002E40C400E8C088D4
:100CF400008EC04400E280C80101FA010000000037
:00000001FF
